:020000040800F2
:10000000E092002099090008E5120008E7120008B4
:10001000E9120008EB120008ED12000800000000D1
:10002000000000000000000000000000EF120008C7
:10003000F112000800000000F3120008F512000899
:100040009509000895090008950900089509000818
:100050009509000895090008011300089509000892
:1000600095090008950900089509000895090008F8
:1000700095090008950900089509000895090008E8
:1000800095090008950900089509000895090008D8
:1000900095090008950900089509000895090008C8
:1000A00095090008950900089509000895090008B8
:1000B00095090008950900089509000895090008A8
:1000C0009509000895090008950900089509000898
:1000D0009509000895090008950900089509000888
:1000E00095090008950900080913000895090008FA
:1000F0009509000895090008950900089509000868
:100100009509000895090008950900089509000857
:100110009509000895090008950900089509000847
:100120009509000895090008950900089509000837
:100130009509000895090008950900089509000827
:100140009509000895090008950900083913000869
:100150009509000895090008950900089509000807
:1001600095090008950900089509000895090008F7
:1001700095090008950900089509000895090008E7
:10018000950900089509000837B50023104C019324
:100190000546032001F0FAFF2B68013C1A69019221
:1001A00013D0019A002AF4DA019A42F00102019276
:1001B000019A1A61064A19690191013A02D001991E
:1001C000C907F8D4032001F0E1FF002003B030BDDF
:1001D000410D030030B5C4786CB900EB82000333E5
:1001E000D0F8D0509B1022469A4204D051F82200F9
:1001F00028600132F8E7002030BD10B50332D0F896
:10020000D0409210002393424FEA830004D020682C
:1002100041F823000133F6E7084410BD0122F0B590
:100220000023827001294FF02002C37082800CD11C
:1002300008230370042343704FF4A073C380022388
:100240000372C1724FF0A04309E041B90C2303705F
:10025000062343704FF4A063C380234BC17203F5A0
:10026000006245780261C360024619460024AC4230
:1002700001F1200602F1040208D201F5106701F530
:1002800030611165576101343146F0E7047803F5B8
:100290008062426103EB441503F58862C0F8CC200C
:1002A00005F5A06503F5A0620146AA4201F104012B
:1002B00003D0C1F88C202032F7E703EB043403F5B8
:1002C000805204F580540146A24201F1040104D099
:1002D000C1F8CC2002F58052F6E703F56063C0F860
:1002E0000C310020F0BD00BF0000044038B5037A97
:1002F000012B05464FF0000450F80C2F1ED1936BD4
:10030000697A64F3104309B143F480139363D368AB
:100310006FF386136FF396536FF351436FF3D34329
:10032000D360FFF731FFEB78012B19D1052363F37D
:100330004404EB6844F020049C6011E0D36843F06F
:100340004003D360FFF720FF6B7AEA68002B0CBFF5
:100350004FF450234FF4E8139363142001F020FF6F
:10036000EB78012B07D1EB689C68052262F344040B
:1003700044F020049C60002038BDC3689A6842F0B5
:1003800001029A6000207047C3689A6822F0010257
:100390009A6000207047000007B500230193019B7D
:1003A00043F020030193019B61F38A130193C26818
:1003B000019B1361074B11690191013B02D0019927
:1003C0008906F8D4032001F0E1FE002003B05DF8B7
:1003D00004FB00BF410D030007B500230193019BFF
:1003E00043F010030193C268019B1361074B11692D
:1003F0000191013B02D00199C906F8D4032001F014
:10040000C5FE002003B05DF804FB00BF410D0300F2
:10041000C26808B5D36801296FF35D736FF39E73EB
:1004200002D143F0005302E009B943F08043D360A6
:10043000322001F0B5FE002008BDC368586900F005
:10044000010080F001007047C3685A699869104044
:10045000704703691A6861F301021A60704700006F
:1004600010B5C26800236FF0804193615161C2688A
:100470004FF0FF345460516108499161C17899424D
:1004800008BF102343F08043916943F00C1343F4F9
:1004900060530B439361002010BD00BF0008008033
:1004A00038B5D0F80C3100221A60036915461A6875
:1004B00065F3CC221A60C37A012B04461BD10321B9
:1004C000FFF7C7FFE36880214FF4800261F30F025A
:1004D00059629A62C02262F30F0561F31F454FF41F
:1004E000A072C3F8045162F30F056FF31F45C3F800
:1004F0000851C3F80C5110212046FFF74DFF20464C
:10050000FFF76AFF226900234FF0FF311361536147
:1005100091612169D361627893420FD204EB830227
:100520000133926910680028ACBF00204FF0904062
:10053000106000201061FF209060ECE700236278DB
:1005400093420FD204EB83020133526D10680028EE
:10055000ACBF00204FF09040106000201061FF20E1
:100560009060ECE70B6943F480730B61E378012B37
:1005700004D1054B402262F359430B632046FFF739
:100580006FFF002038BD00BF0301010003699B68B5
:10059000C3F34103022B05D0032B05D0012B03D05D
:1005A000032070470120704702207047036981696A
:1005B00010B59C680A68C4F34100022806BF0320F6
:1005C00060F30A026FF30A020A605A6842F480720A
:1005D0005A60002010BD30B54D780B78012D4FF0DA
:1005E000000200EB830405D105FA03F3A46963F369
:1005F0000F0205E0012505FA03F3646D63F31F4262
:1006000023681D040DD48D6865F30A03CD78C9886D
:1006100065F3934361F3995343F0805343F40043EC
:1006200023600369D9690A43DA61002030BD30B51F
:100630004D780B780024012D224600EB830105D173
:1006400005FA03F3896963F30F0205E0012505FA52
:1006500003F3496D63F31F4203696FF3CF340C60FA
:10066000D96921EA0202DA61002030BDF8B54E787E
:100670000A4609785369012E00EB810145D18D6945
:1006800029682C6963F3120413B966F3DC440BE0A8
:1006900096689F19013FB7FBF6F666F3DC44D678FF
:1006A000012E08BF66F35E742C61C4781578012CA6
:1006B00005D100EB85051469AD696C610AE0D47859
:1006C000012C07D033B104690127666B07FA05F5E1
:1006D00035436563D478012C07D10469A468E40527
:1006E00054BF41F0005141F08051147800EB840474
:1006F00041F00441A4692160D178012936D1D16843
:1007000012789BB2FFF766FD30E04E6D9568316858
:1007100034692BB965F31204012363F3DC440AE066
:100720002B44013BB3FBF5F363F3DC44C3F3090350
:100730005D4365F312043461C378012B05D113784E
:1007400000EB83035C6D13696361D378012B06D1E1
:10075000537913B141F0005101E041F08051137819
:1007600000EB830041F00441436D19600020F8BDA7
:10077000F7B591F801C04A69BCF1010F3DD1846918
:10078000236826690096F5B2C6F3074742B962F3BB
:1007900006056CF3C4078DF800508DF802700FE069
:1007A0008E68B2428ABF66F3060562F306054E61A3
:1007B00001223E4662F3C4068DF800508DF80260B7
:1007C000009A2261C278012A05D10A7800EB8202E0
:1007D00095690A696A6143F004432360C378002B7A
:1007E0003FD14B69002B3CD003690A78586B01213B
:1007F00001FA02F202435A6333E00B7800EB830301
:100800005C6D236825690095EFB2C5F307468D68D6
:100810004AB9012265F3060762F3C4068DF8007039
:100820008DF802600BE03A4665F306024D618DF8E3
:1008300000203546012262F3C4058DF80250009A6B
:100840002261C278012A05D10A7800EB8202546D38
:100850000A6962610A7800EB820043F00443426D4A
:100860001360002003B0F0BD4B78012B0B7800EB38
:10087000830006D182691368002B04DA43F08043B9
:1008800001E0426D136843F40013136000207047C9
:100890004B78012B0B78C97800EB8300A1F10201A2
:1008A0000CBF8269426D136801296FF3555398BFDD
:1008B00043F0805313600020704703699A69D86938
:1008C0001040000C704700EB810102694B6D9B6882
:1008D00050691840704703699869DB69184080B215
:1008E000704782B000230093C0238DF803300122AB
:1008F0004FF0000362F3C4038DF8023018238DF823
:100900000030436D009A1A61C278012A06D100F2C4
:10091000CC5058611A684FF080221A6002B07047BC
:10092000837A63B103699B68DB0708D5D0F80C3183
:10093000D0F80C216FF341036FF30003136070478D
:100940007047704770477047704770477047002086
:10095000704700004FF400731360024B9B680B60FC
:10096000002070470074002000207047012070476D
:100970000020704708B5024802F006FB002008BDC1
:100980000074002008B5024802F062FB002008BD98
:1009900000740020FEE7000008B500230C4A0D4952
:1009A0009818884204D20C49595899500433F5E7F5
:1009B0000A480B494FF000028842B8BF40F8042BA8
:1009C000FFF6FAAF01F0A0F9BDE8084000F0E0BB87
:1009D00000000020080300203680000808030020E3
:1009E000DC8A002073B51446064A8DE80C000646E2
:1009F0000D46186931462A46234600F0A3FC02B092
:100A000070BD00BF410A000830B513681446B3F941
:100A10001850B2F90C205B7B85B08DE803000749C4
:100A2000029120690394294601F0B4FA23699A7B64
:100A3000A38901201344A38105B030BDE509000856
:100A4000F0B50029059C1FDB6589A9421CDA002846
:100A50001ADB25898618AE4216DA0025EFB205EBBF
:100A6000000CBA421FFA8CFC0ED0268967684E43F0
:100A700006FA8CF6013517F806C0C3EB0C0C2CEA0D
:100A8000EC7C07F806C0E9E7F0BD000010B5054CA6
:100A900005480649227803F059F82378013323707A
:100AA00010BD00BF08030020EC7300207443000851
:100AB000034BFF2198684FF4E14203F03EB800BFBA
:100AC00008030020F7B51A4C237E012B054603D0FE
:100AD000FFF7EEFF0123237600260C21F2B2154B1F
:100AE0004A4399189A58F2B15B6DC888EF1AB84218
:100AF00017DB2B44984214DA0B7A93B16368898828
:100B0000596199610C4B9A60B3F910100B4B00932B
:100B10000B4B401B208218680A4B02F00DFC00238F
:100B200023760136D9E765832F35A58303B0F0BD61
:100B30000803002040000020CC7300200C0300209C
:100B400048030020090A00082DE9F8430746144627
:100B500089B149024FF41673A1F13606B6FBF3F2E0
:100B600001F5E579B9FBF3F903FB126590B21FFAC1
:100B700089F9ADB204E0A2F136040D468946084673
:100B8000394EC9F5477909F10309B28B1FFA89F982
:100B9000C0F5477808F1030891451FFA88F802D894
:100BA000738B994501D8484607E0904501D8984590
:100BB00005D8C0F54770023080B2FFF783FFA2B2BC
:100BC000C2F516739D4212DC738BC3EB090909EB66
:100BD0008909C9EB091905EBC905ADB2B5F5E14FB6
:100BE00019D8214B996838462944224637E0738B3F
:100BF000C3EB080303EB8303C3EB0313C5F51679BB
:100C000005EBC3051FFA89F9ADB2A145B8BF4A4645
:100C1000B5F5E14F03D938460321224618E0B16803
:100C20003846294402F080FF738B08F1FF38C3EB8C
:100C3000080303EB8303C3EB0313DB009BB2C9EB95
:100C40000404B3F5E14F07EB0900A2B204D9032174
:100C5000BDE8F84302F071BF034989681944BDE853
:100C6000F84302F061BF00BF0803002038B500F070
:100C7000B1FB4368124C5868124BA3604FF41673D3
:100C8000002523610123E3612060657300F07CFB94
:100C90000D4B2269186032236361A3610B4B9A816B
:100CA0000B4A5861526DDA810A4A5C601D829A6073
:100CB000FFF7FEFE2846BDE83840FFF703BF00BF40
:100CC000CC7300206A43000848030020080300207A
:100CD000400000204C03002037B50F4D044655F866
:100CE000200005EB4405012100F0CCFA2B8A00938B
:100CF00001238DF804308DF8073002238DF805307C
:100D0000064B002253F824008DF80620694600F0B7
:100D1000A9FF03B030BD00BFB44300089800002015
:100D2000044A054B53F8203002EB4000028A1A8334
:100D3000704700BFB44300089800002020230B80B8
:100D400000487047AC00002010B58121044602F035
:100D500050FA0121204602F04CFA204602F0C0FC75
:100D6000002010BD10B50446FFF7EEFF204681219C
:100D70004022022302F01CFA0121402202232046D5
:100D800002F016FA204602F077FC002010BD0000A9
:100D9000F8B50B7813F0600506460C4628D0202DD8
:100DA00048D14A78FE2A02D0FF2A10D01CE04D8894
:100DB0007DB9CF88012F0CD11A060AD51F4B1B68AD
:100DC0009B6998471E493A46087030462BE04A888E
:100DD00012B13046214607E0CD88002DF9D11B061F
:100DE000F7D402F06DFC26E001F001FA022522E0C2
:100DF0004B780A2B15D00B2B18D0012B1BD109795E
:100E000002F077FA2179304602F0F3F92179304681
:100E10004022022302F0CCF93046217902F014FD81
:100E200009E00849012202F0BDFB04E0044B4A88B6
:100E30005A7000E000252846F8BD00BF1C000020C5
:100E4000280300202903002008B502F06DFC0020D3
:100E500008BD08B502F086FC002008BD10B5D0F82A
:100E6000E83504461B699847032384F812310020B3
:100E700010BD08B5042380F81231D0F8E835DB68DE
:100E80009847002008BD08B5D0F8E435DB6903B108
:100E90009847002008BD08B5D0F8E4351B6A98478C
:100EA000002008BD08B5D0F8E4355B6A98470020FB
:100EB00008BD08B5D0F8E8355B699847002008BD43
:100EC000D0F8E83510B504469B699847D4F8E43566
:100ED00020465B6800219847002010BD002110B516
:100EE0000B460446202202F063F98021202220468E
:100EF000002302F05DF9012384F81231D4F8E835BB
:100F0000A0785B689847002010BD13B56946044679
:100F100001F04BF99DF8001001F01F03012B0CD0DC
:100F200006D3022B0ED12046694601F0B7FA0EE037
:100F30002046694601F070F909E02046694601F053
:100F400095FA04E0204601F0800102F09EF90020AD
:100F500002B010BD70B5044600293CD190F81131A3
:100F6000022B41D1D0F83821D0F824319A4211D93E
:100F7000C178D21A0129C0F8382104D1D0F828113B
:100F80000B44C0F828312046D4F8281192B202F060
:100F90001AFB29E0D0F83C51B5FBF3F603FB1656DB
:100FA0005EB99D4209D3D0F840319D4205D2324608
:100FB00002F009FBC4F8406116E0D4F8E435DB68C0
:100FC0002BB194F81221032A01D1204698472046DC
:100FD00002F01AFB08E0D0F8E4355B6923B190F821
:100FE0001221032A00D19847002070BD10B5044695
:100FF00059BB90F81131032B30D1D0F89023D0F8A1
:101000007C339A4214D9C178D21A0129C0F89023AE
:1010100004D1D0F880131944C0F880139A4228BF35
:101020001A462046D4F8801392B202F0D5FA15E0A1
:10103000D0F8E4351B6923B190F81221032A00D1BE
:101040009847204602F0D1FA08E0D0F8E4359B69D1
:1010500023B190F81221032A00D19847002010BD37
:101060002DE9F0410446164698460D46069F01F0CC
:1010700023F820462946C4F8E485C4F8E875C4F886
:10108000EC6502F047F8D4F8E8351B68984720462D
:10109000BDE8F04101F064B8D0F8E43510B504467D
:1010A0001B689847D4F8E8359B689847002010BD26
:1010B00008B5D0F8E4355B689847002008BD00000B
:1010C000244B9A4270B504460D4642D851189942B5
:1010D00084BFC2F5EA2505F236758AB94FF400726D
:1010E0001D4902F021FD1D4A134653F8040BC4F8B4
:1010F00002001868C4F812009068C4F8160070BDA9
:10110000B2F5007F06D1164902F00EFDBDE8704031
:10111000FFF7BCBC560AB2F5806FA6F102060CD1EF
:10112000104B024603F1340153F8040B42F8040B50
:101130008B42F9D11B8813803634204631462A462B
:10114000FFF702FD204631462A46BDE8704002F016
:101150004BBC70BD36570700DC430008144800083C
:10116000DC450008DC4700080B4608498A4210B5F8
:101170000BD8D4188C4284BF0B46C2EB0303412129
:101180001A46BDE8104002F0D8BC10BD002D310158
:101190007FB50020FFF7A0FD0120FFF79DFD022095
:1011A000FFF79AFD0320FFF797FD02A800F026F84D
:1011B000FFF75CFD02F09EFC0020FFF7B1FD08493F
:1011C000084A094801F03EFC084B00930848094AC8
:1011D000094B0121FFF744FF0220FFF7A1FDFEE7C5
:1011E0002048000828010020007400200000002092
:1011F0003074002058020020CC0000201D4B9A685B
:1012000002F00C02042A10B503D0082A03D01A4BAE
:1012100018E01A4B16E059685A6811F4800F5968A3
:1012200014BF164B144B02F03F02B3FBF2F3114A0A
:101230005268C2F30142C1F3881101324B4352009C
:10124000B3FBF2F30B4903608B680D4AC3F303133E
:10125000D45C0368E34043608C68C4F38224145D6B
:1012600023FA04F484608968C1F34231525CD340AC
:10127000C36010BD003802400024F40000B4C40470
:1012800028020020044B1A6B09B1104301E022EA46
:1012900000001863704700BF00380240044B5A6BCF
:1012A00009B1104301E022EA00005863704700BF13
:1012B00000380240044B5A6C09B1104301E022EAA5
:1012C00000005864704700BF00380240044B1A6A9F
:1012D00009B1104301E022EA00001862704700BF24
:1012E000003802407047FEE7FEE7FEE7FEE7704782
:1012F00070477047014B01221A7070472A03002083
:10130000012001F0C1BE000010B5094CA37A4BB119
:10131000084B1A6922F006021A6100F0F5FC20461B
:10132000FFF7FEFA4FF48020BDE8104001F0ACBE9C
:101330003074002000ED00E0014801F079B900BFF1
:10134000307400202DE9F7430A9E0B9D009601950D
:101350008769044689469046B84738B90195238A7B
:101360000096A569204649464246A84703B0BDE815
:10137000F08310B543690446984718B96369218A18
:101380002046984710BD000010B50F49034611F8DC
:10139000012F22B113F8014B9442F8D001E01B78E1
:1013A0007BB10A4A12F8013F2BB110F8011B994298
:1013B000F8D0002010BD03780548002B18BF00208E
:1013C00010BD034810BD00BFAF720008BF72000817
:1013D0003C480008004870476C48000870B590F819
:1013E0002A600023B34212D20C245C43C56A2A1936
:1013F0002C5BA14209D355880C1BAC4205D2536823
:10140000906833F81430184470BD0133EAE70020C7
:1014100070BD2DE9F34104460D461746B4F804802B
:1014200063880FFA88F041191AB2914214DBC8EBB5
:1014300003085FFA88F823690093B4F90610E66898
:101440003B464246B0472388A380E388C8EB0505A6
:101450000133ADB2E380E1E755B123690093EAB20D
:101460003B46B4F90610E668B047A3881D44A58042
:1014700002B0BDE8F081838819444388818030B58B
:101480009DB2828819B214B28C4207DB01880A44EB
:10149000521B8280C2880132C280F2E730BD0F2A1F
:1014A0002DE9F04107460C4605D802EB021208462A
:1014B000D2B2012178E0102A03D10B89CB80BDE89C
:1014C000F081172A74D990F82830173393423BDB08
:1014D000183AD2B2436A33F8126003EB420335463E
:1014E000B3F80280C6EB08081FFA88F8AB1B9BB262
:1014F000434527D23B6A595D11F0C00301D1204614
:1015000006E0402B07D101F03F010131204689015F
:10151000FFF7B1FF14E0802B05D101F03F01204619
:101520000131FF220AE0C02B0AD1C1F3011301F0FF
:101530000F0101EB01122046591CD2B2FFF769FFDF
:101540000135D3E7BDE8F081FB2A0AD8F32A0AD88F
:10155000E32A0AD8C32A0AD8842A34BF07230623D9
:1015600006E0022304E0032302E0042300E0052355
:10157000043AD5B21E460021EB0702D50131C9B2AB
:1015800009E019B12046FF22FFF743FF0121204661
:10159000FFF771FF0021013E16F0FF064FEA5505E7
:1015A000EAD129B12046FF22BDE8F041FFF731BF63
:1015B000BDE8F0812DE9F04387B0057AADF804105D
:1015C0000D44ADF80810417AADF80A200A44ADF890
:1015D0000C200E9A049219460F9AADF80650044654
:1015E0000592FFF7FBFEA0B390F800800646BDF918
:1015F0000A20BDF90C309A422ADA94F8283016F8FD
:10160000012F173393421EDA94F82930173393428F
:1016100019DB183AD2B2636A33F8127003EB420353
:101620000025B3F80290C7EB09091FFA89F9ABB29C
:101630004B45DCD2236A3B4420465A5D01A9FFF7A3
:101640002EFF0135F3E7204601A9FFF728FFCEE77B
:10165000404607B0BDE8F08308B5FFF7BFFE00B114
:10166000007808BD10B5084B084C187804F8301005
:1016700004EBC0040130C0B21202042862600ABF49
:10168000002218701A7010BD5C7A0020347A002095
:101690002DE9F743A04F386013781E2B0D461646F0
:1016A00076D00DD8122B56D005D8E3B1032B40F0DD
:1016B0000882002226E01A2B6CD01B2B68D000E297
:1016C000282B00F0CA8005D8232B7BD0252B00F0D7
:1016D000A180F6E12F2B00F0DD815A2B66D02A2B5A
:1016E00040F0EF8152E18D4B9A68002A40F09281E0
:1016F0008B4B1B6808469B6898470446002800F0FF
:10170000F98154E1874B0020D0540132122AF9D1DB
:1017100070228549854C1A700C22DA7124780A7877
:1017200094420FD0824C14F832509D7004EBC204E6
:10173000013265791D73D2B2042A24795C7314BF17
:101740000A7008707B4B12221A803279122A98BFD5
:101750001A800024BBE15378DB070DD4704B12795B
:101760001B68DB6901EBC10503EB85052B790533AC
:10177000934228BF134601E06F4D07236D4A138043
:10178000002BE6D0013B9BB2664AE95CD154F7E7F7
:101790000024AFE1674A08231380013B9BB2674AEC
:1017A000D15C604AD154002BF7D1D2E7614A0823BB
:1017B0001380013B9BB2624AD15C5A4AD154002B40
:1017C000F7D1C6E70027574E0023BB5501370C2F32
:1017D000F9D1534B1B6828465B6801A96A469847B4
:1017E0000446002840F0E3800823F370019B013B8E
:1017F0001A0E32711A0C7271F3711A0A02233372C3
:10180000009BB2711A0C7272F3721A0A494BB272CF
:101810001F805CE1424B4B4F1B684B4E5B68084698
:101820003246394698470446002840F0C08039685F
:101830003C4B01390A0E1A700A0C5A700A0A9A7047
:101840003268D970110E1971110C5971110ADA71BF
:101850009971384B08221A8039E1DFF8F48098F842
:101860000030C146002B35D12C4C94F90C30002BA4
:101870002EDA2B4B1B6808469B689847002840F0DF
:101880009680F278B378F1792E48DFF8C8E00068E6
:10189000120442EA036273791A43337942EA03225B
:1018A000337ACEF8002043EA0123D618274986422E
:1018B0000B6000F20281022088F8000022480068D4
:1018C0004243CEF80020A26843439A420B6001D005
:1018D000607BF7E0174B1D4CDFF8788026684FF4EB
:1018E00080521A80184B964228BF16461A680C4B35
:1018F0001968D8F80030D1F810C00A49B6FBF2FEDA
:101900002846B3FBF2F21FFA8EF3E047002823DAF1
:10191000284604211122D7E0587A0020A48A00200A
:101920001C000020A07A00202C7A00205C7A002085
:10193000347A0020D68A00205073000848730008CB
:1019400040730008247A0020287A0020307A002092
:10195000D48A0020547A002033468121674A3868AF
:1019600001F07AFCD8F80030654A33449168C8F831
:10197000003023689B1B8E1B23609660002B7FF436
:10198000E8AE032289F800201C46A0E05D4B1A78DF
:101990009946002A40D15C4B93F90C20002A9846C6
:1019A00038DB5A4C236808469B68984718B128468C
:1019B00002213A2288E023682846DB6898470446DB
:1019C00018B12846022127227EE0F278B378F17917
:1019D0004F48DFF848E10068120442EA0362737975
:1019E0001A43337942EA0322337ACEF8002043EADD
:1019F0000123D618474986420B605ED846480068E6
:101A00004243CEF80020D8F8082043439A420B60A6
:101A100061D03D4B587B55E03F4B3E4E1A683468D1
:101A20003A4BDFF8F8801968D8F80030D1F814C0C4
:101A30003249B4F5805F28BF4FF48054B4FBF2FE06
:101A40002846B3FBF2F21FFA8EF3E047002803DAD0
:101A500028460421032237E0D8F80030284A2344DE
:101A60009168C8F8003033681B1B0C1B336094600E
:101A700023B93868002101F039FE6AE6B3F5805FCA
:101A800028BF4FF4805338681C4A01219BB201F0F3
:101A9000C8FB5EE6537803F0020303F0FF041BB1BA
:101AA0000846242205210FE01A4B1A881B4B1B689D
:101AB0001A44174B1B689A421CD92846052121223B
:101AC00002E0284605212022FFF7CCFDFF2460B26A
:101AD00003B0BDE8F083B2F5805F34BF13464FF426
:101AE000805301213868054A89F800109BB201F043
:101AF00098FBECE70A4B1C80E9E700BFA07A0020C6
:101B0000C48A0020D48A0020A48A00201C0000205F
:101B1000247A0020307A0020287A0020547A00208D
:101B2000D68A002012230B8000487047380200201C
:101B300004230B80004870474A02002010B5044C73
:101B400004480A46214600F00BFD204610BD00BFA8
:101B50005D7A0020CA72000808B50A4608B9044830
:101B600000E00448044900F0FBFC034808BD00BF46
:101B7000DD720008F57200085D7A002008B50A469B
:101B800008B9044800E00448044900F0E9FC0348AF
:101B900008BD00BF0D7300081A7300085D7A0020AD
:101BA00010B5044C04480A46214600F0D9FC2046F2
:101BB00010BD00BF5D7A00202773000810B5044CEB
:101BC00004480A46214600F0CBFC204610BD00BF69
:101BD0005D7A00203273000870B50268137883B311
:101BE000511C016019062CD503F0C001802928D0B2
:101BF000527802F0C002C02A23D000250222202100
:101C0000194204684FEA85150CD0052A0AD014F849
:101C1000016B046006F03F0601323543D2B2490839
:101C2000ADB2EDE714F8016B046001390B40013AE5
:101C3000062106F03F064A43354393402B4398B2B2
:101C400070BD184670BD0368013B036002681378DD
:101C5000190606D503F0C003C02B02D0013A02607A
:101C6000F4E770472DE9F0410F68002301229A4004
:101C700002EA0705954230D15A00032406689440D1
:101C8000E443264006600E79D0F800C006FA02F858
:101C9000013E48EA0C0C012EC0F800C014D886683A
:101CA00091F805C02640866086680CFA02FC4CEA72
:101CB00006068660466826EA050545608D79466811
:101CC0009D40ADB235434560C5682C40C460CD79B8
:101CD000C46805FA02F22243C2600133102BC5D159
:101CE000BDE8F08101F00703C90800EB810010B5E1
:101CF0009B00046A0F21994024EA01010162016AF4
:101D00009A401143016210BD3C4B1A6842F0010237
:101D10001A6000229A60196821F0847121F48031E0
:101D2000196037495960196882B021F4802119601F
:101D3000DA60009201921A6842F480321A602F4BE6
:101D40001A6802F400320192009A01320092019A5C
:101D50001AB9009AB2F5A06FF1D11B6813F40033E1
:101D600018BF01230193019B012B0CD0234B9A68D0
:101D700022F400029A60234AC3F884201A6842F0D1
:101D800080621A6030E01D4B1A6C42F080521A6477
:101D90001D4A116841F4804111609A689A609A68FE
:101DA00042F400429A609A6842F4A0529A60174A3C
:101DB0005A601A6842F080721A6019680F4A8901E5
:101DC000FBD5134B40F205611960936823F00303C0
:101DD0009360936843F002039360084B9B6803F0A1
:101DE0000C03082BF9D1C1E71A681201FCD5094B85
:101DF0004FF000629A6002B0704700BF00380240A6
:101E0000103000248040003000700040085440072B
:101E1000003C024000ED00E0044B1A680AB9044A95
:101E20001A601A6810441860104670472C0300208E
:101E3000E0920020F7B54FF6FF770190002015469D
:101E4000002918BF0F4606460446019A12788AB147
:101E500001A8FFF7C1FE01342028A4B208D0A028B1
:101E600006D00A2804D00D2802D0092818BF26461B
:101E7000BC42EAD12DB1019A12780AB92A8000E059
:101E80002880304603B0F0BDF8B50E466D211746E8
:101E90000546FFF76EFAC00084B220212846FFF7FE
:101EA00068FA2B7B384482B29B1B13441BB2101977
:101EB00093FBF4F204FB1234001B00B2F8BD2DE9D1
:101EC000F74F047BBDF8306001930C1B81468A46B6
:101ED0009346A4B200271EB301A8FFF77DFE092890
:101EE000054607D122B248465146FFF7CDFF2025CF
:101EF00004460FE037B1484639462A4601F0EAFC6D
:101F0000204484B220B259462A460E9B0D9FB84702
:101F1000204484B206F1FF381FFA88F62F46DAE72C
:101F200003B0BDE8F08F2DE9F7434FF6FF770026A9
:101F3000804601919946002A18BF17463446019AF7
:101F400013780BB301A8FFF747FE0928054607D110
:101F500022B240460021FFF797FF2025044610E0FB
:101F6000B9F1000F07D036B1404631462A4601F09C
:101F7000B1FC204484B240462946FFF7FAF92044D8
:101F800084B2013FBFB21FB920B203B0BDE8F083F5
:101F90002E46D4E72DE9F04F89B00446129D8B46BA
:101FA00090462846BDF84C1000221F46FFF742FF1E
:101FB00006463FB9149F0197159F0090029720464F
:101FC000594613E0012F16D12946002320463246F8
:101FD000FFF7A9FF022390FBF3F0149F0197C0EBDA
:101FE0000B01159F00960297204609B242462B46E8
:101FF000FFF765FF5DE0022F5BD106950025ABB2D0
:10200000B34204D206A8FFF7E7FD0135F7E7257BC9
:102010001FFA8BFB0027C5EB0B05ADB20597B94640
:10202000059FBBB2B34244D206A8FFF70CFE08A836
:10203000069B40F8043DFFF7CFFD8246BAF1090F39
:1020400020461AD16D21FFF794F9C0001FFA80F9DC
:1020500020212046FFF78DF9227B281A80B25A44AE
:10206000121A12B292FBF9F1C9EB000509FB112318
:102070001D44ADB24FF0200A16E05146FFF779F942
:10208000281A85B2B9F1000F01D1ADB206E02046A1
:1020900051464A4601F01EFC281A85B228B2414634
:1020A0005246159B149FB847059F01370597D146A7
:1020B000B6E709B0BDE8F08F73B501200146FFF720
:1020C000E1F8264C4FF4D8530093022303268DF8F1
:1020D00004302046002369468DF806308DF807301D
:1020E0008DF80560FFF7BEFD204608210A22FFF7A4
:1020F000F9FD204609210A22FFF7F4FD20460B21B5
:102100000A22FFF7EFFD20460A220C21FFF7EAFD25
:1021100001254FF480632046694600938DF80650F0
:102120008DF807508DF80560FFF79CFD0A210A46DF
:102130002046FFF7D7FD29464FF48040FFF7BAF855
:1021400029468020FFF7AAF829464FF08050FFF774
:10215000BDF8284600F098FF02B070BD00000240B4
:1021600007B54FF4C06000F095FF43238DF80430AD
:102170000322012301A88DF805308DF806208DF883
:10218000073000F091FF03B05DF804FB782358435B
:102190000722B0FBF2F0002301338342FCD97047E1
:1021A0004FF47A735843FFF7F1BF90F8CC350B70BA
:1021B00090F8CD354B7090F8CF2590F8CE3503EBE5
:1021C00002234B8090F8D12590F8D03503EB022301
:1021D0008B8090F8D32590F8D23503EB02239BB285
:1021E000CB80C0F84031012380F81131704710B521
:1021F00091F90030002B044602DA2046802103E0EA
:10220000CB88002BF9D0002101F03FF82046BDE833
:102210001040FEF766BB000073B54B7804460D46D0
:10222000092B00F21781DFE813F0CC000301150140
:10223000DF0015016E000A001501BC008E004B88FE
:102240001A0A013A062A00F20581DFE812F00700B7
:102250001A0027000301030103010301D4F8EC3540
:10226000A0781B680DF106019847EB88402B0146CA
:1022700003D094F81231012B35D10823ADF8063084
:1022800031E0D4F8E435A0789B6A0DF10601984757
:10229000022343700146C4F8F00524E0DBB2052BAD
:1022A00000F2D880DFE803F003070B0F1317D4F810
:1022B000EC355B6812E0D4F8EC359B680EE0D4F89E
:1022C000EC35DB680AE0D4F8EC351B6906E0D4F89D
:1022D000EC355B6902E0D4F8EC359B690DF1060141
:1022E000A07898470146BDF80630002B00F0B68074
:1022F000EA88002A00F0B2809A4228BF1A46ADF858
:10230000062020466DE08B88002B40F0A380CB8810
:10231000002B40F09F8094F812318E78032B06F04A
:102320007F0600F09780204684F81461314600F063
:10233000ECFF204601F059F90EB1022300E0012321
:1023400084F812318AE08978464E0129317000F212
:10235000818094F81231022B02D0032B09D079E04E
:10236000002961D00121032384F8101184F812316F
:1023700013E041B9022384F8123184F81011204689
:10238000FEF796FE50E094F8101101294CD020463B
:10239000FEF78EFE317884F810112046FEF77CFEA1
:1023A00042E0CA88012A55D194F81231022B05D097
:1023B000032B4FD1204604F5887112E020462A49AC
:1023C0000FE094F81231023B012B43D8D4F81831B6
:1023D0002449002B0CBF0123032341F8083F20466A
:1023E000012201F0DFF839E04B88012B29D0022BC4
:1023F00034D18A8812F0FF0F30D12169120A013AD4
:102400004B68042A0FD8DFE802F0030507090B0028
:10241000012206E0022204E0032202E0042200E09E
:10242000052262F306134B60204601F0DEF815E04A
:1024300094F81231023B012B0CD84B88012B0DD1A3
:102440000023C4F81831D4F8E43520469B682946A7
:102450009847E9E720462946FFF7C9FE002002B069
:1024600070BD00BF300300203403002038B590F861
:102470001231032B04460D460CD10B79012B09D8E0
:10248000D0F8E4359B689847EB882BB9204601F0DB
:10249000ACF801E0FFF7ABFE002038BD70B54E7818
:1024A0008A88012E04460D46D3B210D027D3032EBE
:1024B00050D190F81221022A28D0032A48D14A8804
:1024C0009AB95E0611D0194600F0DFFE0DE090F8D3
:1024D0001221022A1AD0032A3AD14A88002A39D175
:1024E000590608D0194600F0EAFED4F8E435204633
:1024F0009B6829469847204601F077F82AE090F833
:102500001251022D02D0032D06D021E05A0621D00F
:10251000194600F0BAFE1DE012F0800F4FF02801BE
:102520000D4A10D003F07F0301FB030191F81E3127
:102530000BB1012300E00023D360204607490222AB
:1025400001F030F806E001FB030393F87633EFE780
:10255000FFF74DFE002070BD300300203C0300203B
:1025600030B5D0B10023DCB20133C51815F8015CD9
:10257000002DF8D1631C5B0013800B7003234B709C
:102580000138022310F8012F3AB15C1CE4B2CA549E
:1025900002330022DBB20A55F4E730BD2DE9F047E3
:1025A0004FF0280909FB010909F58C7909F10404A8
:1025B000A3696269D21AA3689A4238BF134603F12D
:1025C000030A05460F464FEA9A0A00EB8108D8F83D
:1025D00018309B699BB2534526D9A66963699E4210
:1025E00022D20BB3A268E1689E1B964228BF164612
:1025F000B3B22846FAB2FDF7EDFDE3683344E36079
:10260000A36906F1030A1E446369A6619E424FEA6C
:102610009A0ADCD32B6999F80420596B012000FA3F
:1026200002F221EA02025A630120BDE8F0870000AD
:102630002DE9F74F0446FDF700FF002800F0C281A6
:102640002046FDF701FF0646C0F3C04000284FD0EA
:102650002046FEF732F927468046A2464FF0000991
:10266000B8F1000F43D018F0010F38D05FFA89FBA2
:1026700020465946FEF727F9C207054620D57B6D4F
:1026800001259D60E278AA4207D11A69DAF87C3305
:10269000C2F312029B1ACAF88C339C4B1B6820466B
:1026A0001B6859469847E378012B09D1B9F1000F0F
:1026B00006D194F81131052B02D12046FEF711F90D
:1026C000AB0702D57B6D02259D60280707D58F4B90
:1026D0001B6820469B6898477B6D08259D6009F123
:1026E00001094FEA580804370AF1280AB8E701201F
:1026F000710360D52046FEF7EEF8274681464FF07D
:102700000008B9F1000F55D019F0010F4CD0236922
:102710005FFA88F11D695A6B04EB81029269926835
:102720001540EA071BD55A6B012505FA08F022EA85
:1027300000025A63BB699D60744B1B6820465B684E
:102740009847E378AB4211D1B8F1000F0ED194F85D
:102750001131042B0AD12046FEF7C3F806E02046CB
:102760004146FFF71BFFBB6980259D6000BF2B071B
:1027700002D5BB6908259D60E80602D5BB69102516
:102780009D60690602D5BB6940259D60AA0702D5F8
:10279000BB6902259D602B0606D520464146FFF702
:1027A000FDFEBB6980259D6008F101084FEA5909CB
:1027B0000437A6E70120B70702D5E36802225A6171
:1027C000002E19DAA37A43B1D4F80C31D4F80C21D5
:1027D0006FF341036FF30003136023695A6822F01B
:1027E00001025A60494B1B6820469B699847E36881
:1027F0004FF000425A61012035052DD500238DF898
:10280000073094F812318DF80730404B1B68204692
:102810005B69984723699A68E3684FF400615961DE
:10282000A37AC3B1D10716D594F81531012B12D173
:102830009DF80730032B0ED1D4F80C311A6842F002
:1028400001021A601A6842F003021A60304B1A69DA
:1028500042F006021A610120320708D52B4B1B6893
:102860002046DB689847E36808225A610120F30696
:1028700032D5E3689A6922F010029A611F6A28250E
:1028800007F00F0305FB0345C7F34343022B05F590
:102890005D750DD0062B19D1204604F2CC510822CB
:1028A000FDF7ABFCAB69C7F30A173B44AB610DE026
:1028B000C7F30A1757B13A462046E968FDF79DFC71
:1028C000EB683B44EB60AB691F44AF61E3689A6916
:1028D00042F010029A610120F70439D523695A6841
:1028E000002522F001025A6020462946FDF754FDDA
:1028F00023462A4661788A4203F104030AD25869C2
:10290000FF218160186D01328160F3E7F80000203B
:1029100000ED00E0236901274FF0FF3267F30F0558
:102920009A6167F31F450B22DD615A611A611A68CB
:102930006FF30A121A602046FDF7D3FFE3684FF4E5
:1029400080525A61214B1B6820461B6998473846C4
:10295000B5041DD52046FDF729FEE3682046DD6855
:10296000FDF714FE032806D10023A3704FF4007373
:10297000A380092304E00123A3702023A38005235F
:1029800063F38D25E3684FF40052DD6001205A6146
:10299000710009D50D4B1B6820465B6A9847E368B8
:1029A0004FF080425A61012072070BD5E3685D68E1
:1029B0006B0704D5054B1B6820469B6A9847E36864
:1029C00001205D6003B0BDE8F08F00BFF80000207B
:1029D000816870B5034609B1002070BD00790028F8
:1029E000FAD01A68002AF7D05963D963996319633A
:1029F00003F14002146816461CB300245463D463E8
:102A00009463146394684D1EAC4203D10029E3D053
:102A10005B6B21464D1CAC4205D119790029DBD0F6
:102A20009A63536309E08C42D6D1002CD4D0596B01
:102A30000D6B01350D635163DA6340322146334635
:102A4000D8E770BD2DE9F34190460F46024608B91C
:102A5000002062E00029FBD0B8F1000FF8D040461A
:102A60000192FFF7B5FF019A0028F1D043460024F8
:102A700002211D683DB31E794D1E66B100261E6100
:102A80001E6B596276011ABF06F6FF76360B0126D9
:102A900035449D6211E05962196919B101F6FF715F
:102AA000090B00E0012129449962596919B101F625
:102AB000FF71090B00E001210D44DD62D96A013488
:102AC00001314033D5E73E234E18D7604FF0000761
:102AD000136147EB07073F23536156EA0703D462AC
:102AE000116209D040F2FF1600270223E3FB0167C1
:102AF000740A44EAC75400E0012404F13F031C4473
:102B000004EBC10193619160CB0D4902D461C2F81D
:102B10002480C2F828805360116002B0BDE8F081C3
:102B200038B54FF400720C4605460846002101F006
:102B300004F88022002384F8BE21042284F8BF31E7
:102B400084F8C22184F8C331AA6884F8B83184F8C3
:102B5000B93184F8BA3184F8BB3184F8BC3184F8D7
:102B6000BD3184F8C03184F8C13184F8C43184F8AF
:102B7000C5312B69C4F8C631D31AC4F8CA315523FC
:102B800084F8FE31AA2384F8FF3138BD38B54FF4FC
:102B900000720C4605460846002100F0CEFFEB23EC
:102BA0002370404A582363709023A3701368C4F8BD
:102BB000033002215368C4F807300822627321747D
:102BC000217301201021A0736174A8682969411A3A
:102BD000A4F81310F8216175A8696969411AE182A6
:102BE0003F2121764FF0FF310023A1763E21E37291
:102BF000E373A3746376E3766377A377E37784F86C
:102C0000203084F8213084F82230217784F8233072
:102C100084F8243084F8253084F8263084F827306E
:102C200084F8283084F8293084F82A3084F82B304E
:102C300084F82C3084F82D3084F82E3084F82F302E
:102C400084F8303084F8313084F8323084F833300E
:102C5000802384F84030292384F84230942384F878
:102C6000433084F846200E230F4A84F844300D2365
:102C700084F845301368C4F847305368C4F84B30C3
:102C800093680A4AC4F84F301368C4F85230536846
:102C9000C4F85630552384F8FE31AA2384F8FF3156
:102CA00038BD00BF57730008607300086D730008DB
:102CB00002B9426A536A8B420ED9406A82420ED3ED
:102CC000536A994202D3D36A99420DD9403AF5E743
:102CD000536A994205D240321368002BF8D1002084
:102CE0007047D36A9942F6D8104670472DE9F84FDD
:102CF000160207460CD10B464FF6F87223F8042B48
:102D00004FF6FF724A80022619464FF0FE0901E095
:102D10004FF48079D7F828A08D1C34465246536A68
:102D20009C4209F1FF3B04F1010802D3D36A9C42A3
:102D30000ED938462146FFF7BBFF024640B9B344DF
:102D40000123C4EB0B0425F8023C5246A3B214E065
:102D50001379916A13B18C4209D101E08C4202D1FE
:102D60004FF6FF7300E002D925F8023C01E025F898
:102D7000028CB344C4EB0B04A3B244460235002BCF
:102D8000CDD1BA62BDE8F88F2DE9F0470E4617465F
:102D9000002120229846044600F0CFFE304600F085
:102DA000F9FEFB0607D4451E002D04DB735D2E2BB8
:102DB00032D0013DF8E70828B4BF82464FF0080A38
:102DC0004FF0FF354FF0000920210B22204600F084
:102DD000B4FE31465246204600F0A6FE691C31443E
:102DE00004F108004A4600F09FFE0021635CA3F155
:102DF0006102192A9CBF203B635401310B29F5D194
:102E0000182323734FEA1843A382E772089BA4F8A0
:102E10001A80E361BDE8F087C5EB000909F1FF39CD
:102E2000082DB4BFAA464FF0080AB9F1030FA8BF96
:102E30004FF00309C8E700002DE9F34114461E4690
:102E400080460D4608464FF40072002100F075FEE2
:102E5000636B0EBB05F1200753B928460093D8F8E1
:102E60000C100822FFF790FF3D464FF4F07611E07A
:102E7000009628461E49636A1122FFF785FF636B9F
:102E8000009638461B495B6A1122FFF77DFF4035EB
:102E90004FF4E076A46B1DE0002B14BF0223012346
:102EA000A46BC3EB0616002E02DC4FF4007611E093
:102EB000002CFAD0E46B013EF5E71F2E15D92379DB
:102EC00073B10023009321681122636AFFF75CFF4E
:102ED000E46B203E2035A5F12000002CEDD104E06C
:102EE0002369009321682122EFE702B0BDE8F08159
:102EF00077730008767300082DE9F041846AD608DC
:102F0000636A02369E4207460D4602F0070802D366
:102F1000E36A9E420FD9224638463146FFF7C8FE83
:102F2000044638B9164B2B510434B4F5007FF9D15F
:102F3000BDE8F081B86223793BB138462946224684
:102F40004346BDE8F041FFF777BFE7693FB9284640
:102F500039464FF40072BDE8F04100F0EEBD636AFF
:102F60000849F61A4144E36801EBC60203EB42222A
:102F700028464FF40071A369B847BDE8F08100BF4F
:102F8000DEADBEEFFFFF7F002DE9F84305460E469C
:102F900090469946144609EB08031B1B002B32DDB3
:102FA000EA69944205D328463146A21AFFF7A4FFE6
:102FB00025E024B928463146FFF7B2FD1FE02B6912
:102FC0009C4204D128463146FFF7E0FD17E06A69CC
:102FD000AF69944205D3BC4203D228463146A21AB7
:102FE00004E0BC4205D328463146E21BFFF77EFED3
:102FF00005E0304600214FF4007200F09EFD06F51A
:1030000000760134C7E7BDE8F883836A70B50E46E1
:103010001546D1085A6A02319142044602D3DA6A4F
:10302000914206D91A462046FFF742FE034670B188
:10303000A0621A795AB91C6A4CB1DA689B6905F02A
:10304000070530464FF4007102EB4522A04770BDE2
:103050002DE9F04106460D4690461F461C4607EBFB
:103060000803002CC4EB03020BDDF3699A4204D37E
:1030700030462946D21AFFF7C8FF05F50075013C16
:10308000EDE7BDE8F0810000014B5861704700BFDB
:10309000003C014040F0BF60024B40F40030D8607B
:1030A000704700BF00ED00E0C278037810B50AB3A6
:1030B000164A4478D268D243C2F30222C2F1040114
:1030C000C9B204FA01F10F2444FA02F28478C9B2B9
:1030D00022400A4303F1604303F561431201D2B277
:1030E00083F8002303780122590903F01F0302FA31
:1030F00003F306E05909012203F01F0302FA03F368
:103100002031034A42F8213010BD00BF00ED00E03D
:1031100000E100E010B50446FDF780F8012300222D
:1031200084F8123184F81421234661788A4203F12D
:10313000280312D2012183F8F5102020002183F802
:10314000F420A3F8FA2083F8F710C3F8FC00C3F8C2
:103150000011C3F808110132E7E723460022617825
:103160008A4203F1280311D20021202083F84C2346
:10317000A3F8522383F84D1383F84F13C3F8540375
:10318000C3F85813C3F860130132E8E72046FDF78F
:10319000FBF82046FDF7AAF820460021FDF738F994
:1031A0002046FDF77DF92046BDE81040FDF7E5B863
:1031B00070B5CDB215F0800F01F07F044FF02806F6
:1031C00015BF06FB040106FB010101F58E7101F537
:1031D0005D71E4B2ED090C704D708A60CB7005B181
:1031E000CC80022B04BF00230B71FDF7F4F9002003
:1031F00070BDCBB213F0800F01F07F0210B54FF01D
:10320000280415BF04FB020104FB010101F58E71C6
:1032100001F55D71DB090A704B70FDF708FA0020BB
:1032200010BD38B501F07F04282505FB040505F520
:103230005D714B610023CA608B614B7085F87443EC
:10324000C378012B08BF0A6114B9FDF791FA01E0B8
:10325000FDF70CFA002038BD70B501F07F04282579
:1032600005FB040505F58E7101264E7085F81C419D
:10327000CA600A6100228A614B6114B9FDF778FACD
:1032800001E0FDF7F3F9002070BDCBB213F0800F21
:1032900001F07F0210B54FF0280415BF04FB0201B6
:1032A00004FB010101F58E7101F55D71DB0901245B
:1032B0008C700A704B70FDF7D7FA002010BDCBB2AE
:1032C00013F0800F01F07F0210B54FF0280415BFF6
:1032D00004FB020104FB010101F58E7101F55D7132
:1032E0000024DB098C700A704B70FDF7D1FA204680
:1032F00010BD08B50B0604D501F07F01FDF74CF8B1
:1033000001E0FDF769F8002008BD0269002361F3C0
:103310000A1311680B431360704720280AD0A0F1EC
:103320000903012B06D920F02000B0F10D0358420B
:1033300058417047012070472DE9F04F93B00024A9
:1033400003911646824600210CA8182205932546B3
:1033500000F0F3FB0C9602940694079408940994E9
:1033600004943378002B00F0028112A84FF0000B78
:1033700040F81C6DFEF730FCD84601461FFA8BF969
:1033800091B108460191FFF7C8FF0BF1010B0199BC
:1033900050B95046FDF7EDFF40441FFA80F80BA8E6
:1033A000FEF71AFC0146E9E7DDF82CB0002731B33F
:1033B00008460191FFF7B1FF0199002800F0E8806D
:1033C00009F1010920291FFA89F904D15046FDF7B6
:1033D000D0FF384407E0092907D150466D21FDF799
:1033E000C8FF07EBC00087B202E00A2900F0D080D6
:1033F00012A850F81CBDFEF7EFFB0146D7E70121EC
:10340000BDF8362003980FFA88F303FA82F383425B
:103410001ADC12AB0B9E53F80E0DADF83A809B8868
:10342000ADF84430BDF83430ADF83C709044ADF8A0
:103430003E904744994410908DF83810ADF8349080
:10344000ADF8367000298CD0BDF83430CBB912A855
:1034500040F81C6DFEF7C0FB01465046FDF789FFA2
:10346000BDF83630039F00FA83F2BA4209DCBDF89A
:1034700034200B9E01320344ADF83420ADF83630D1
:10348000E5E71DBB0C9BBDF836409DF838700493F2
:10349000BDF83A3009940897BDF83C40BDF83E703D
:1034A00007930023BDF8345006940297BDF84240BC
:1034B0000C96ADF83430ADF836308DF83830ADF8C4
:1034C0003A30ADF83C30ADF83E304AE7089B002B6F
:1034D00045D19DF83830002B41D1099F069BBDF89E
:1034E0003620BDF83CC01FFA87F8039F98B2BBB2E4
:1034F000079FB9B2C0EB080EC1EB08088F18C0EBEC
:103500000808CCEB020CBFB2C4EB0808CEEB030EEC
:10351000CCEB030CC8EB0308DB1B1CFB0CFC13FB04
:1035200003F31EFB0ECE18FB0838C64517DD039CBF
:103530003FB2A74213DC029FBDF834300144ED1BBB
:103540003B440A44ADB2ADF83430ADF836203C46C9
:103550002CB10CA8013CFEF776FBA4B2F8E7049866
:103560001C9A059B2946984700288BD117E03DB946
:10357000BDF8341099B10C981C9A059FB8470EE01D
:1035800004981C9A059C2946A0470028F0D106E023
:10359000B1F10A035942CDF82CB0594130E713B0CC
:1035A000BDE8F08F38B504460D46C4F83C21C4F898
:1035B00038211346022280F8112100212A46FFF704
:1035C0004BFE002038BD10B50C46134600212246A4
:1035D000FFF742FE002010BD10B50C461346002137
:1035E0002246FFF71EFE002010BD10B50021042367
:1035F00004460A4680F811310B46FFF72DFE20469F
:10360000FDF76FF9002010BD10B500210523044619
:103610000A4680F811310B46FFF703FE2046FDF7FE
:1036200060F9002010BD282303FB0101B1F88C03D1
:103630007047000070B50E4B0E4D1A7B044632B930
:103640009B6823B12B7813B90121FFF71EFE20469A
:103650008121FFF71AFE2B78022B07D1204601218A
:10366000034A1F23BDE87040FFF7DBBD70BD00BFFC
:10367000A48A0020A08A00200D4B10B5044600202B
:1036800018700C4B18700C4B1B681B689847204631
:103690000121FFF72EFE20468121FFF72AFE20465A
:1036A0000121064A1F23BDE81040FFF7BABD00BF45
:1036B000D48A0020A08A00201C000020A48A0020B8
:1036C000044B00221A70044B044A012119701F2375
:1036D000FFF7A7BDD48A0020A08A0020A48A00207A
:1036E000014B00221A707047D48A002010B50A4A94
:1036F0000A4B13600A4B1173002104461970812193
:103700000D23FFF7A9FD20460121064A1F23BDE82E
:103710001040FFF786BD00BFC48A002055534253B6
:10372000D48A0020A48A002010B50C4B1B78022BF1
:10373000044603D011D3042B0AD910BD084A517B8B
:103740000F32FDF7A5FF002807DA2046012100E02F
:103750000021BDE81040FFF7C9BF10BDD48A00208A
:10376000A48A00202DE9F041DFF8D88098F8007095
:1037700005461FB1012F49D0BDE8F0812B4C2C4EDE
:10378000636873600121A368B360FFF74CFF1F28D3
:1037900022460AD1236827498B4206D1617B012941
:1037A00003D8A37B013B0F2B08D9507B0521202296
:1037B000FDF758FF204B02221A7006E0284604F15C
:1037C0000F02FDF765FF002804DA2846BDE8F04146
:1037D000FFF730BF98F80030013B022B23D9174B7D
:1037E000198889B1A368B2683773994238BF0B460C
:1037F000D21AB260042288F8002028468121104A9B
:10380000BDE8F041FFF728BD284608E0074A517B94
:103810000F32FDF73DFF002805DA28463946BDE89E
:10382000F041FFF763BFBDE8F08100BFA48A00202C
:10383000C48A002055534243A08A0020D68A002023
:10384000A07A0020D48A002010B50A4C2378022BDD
:1038500005D18121FFF719FD0023237010BD0A0651
:1038600006D5012B04D00121BDE81040FFF73EBF73
:1038700010BD00BFA08A0020072B009A07D9137C37
:1038800091FBF3F1C9B2535C9842B8BF50547047F2
:1038900010B5072B029C0BD9237C91FBF3F1013A65
:1038A000C9B2104480B2635C02B29A42C8BF60548D
:1038B00010BD20280BD00A2809D00D2807D00928D0
:1038C00005D03038092894BF00200120704700201F
:1038D000704700002DE9F04FC57B15F001058DB054
:1038E00006468A46914601D0002062E00846FFF76E
:1038F000E0FF0028F8D04846FFF7DBFF0028F3D0B0
:10390000747A0F34240908BF01248DF82C408DF8F7
:10391000184002AF0DF11C084FF0FF0B002405F812
:1039200007B005F808400135102DF2D1234B214690
:103930008DE80801224653463046FDF703FD204B33
:1039400005468DE8880030464B4621462246FDF765
:10395000F9FC5B46395DFF2908D018F804202AB12C
:1039600029448A1AD2B29A4238BF13460134102C25
:10397000F0D1FF2BB8D02A185210C2EB02126421EA
:1039800092FBF1F20332D31A9BB21AB2002A0DDC79
:1039900000B22DB2A842A8BF05466FF0040195FB06
:1039A000F1F5ADB229B28A4202DB00E000231D46E8
:1039B000E8B240B20DB0BDE8F08F00BF913800080A
:1039C000793800081201131D03EBD1039BB2C943E0
:1039D000C05C01F00701084100F0010080F0010027
:1039E0004042C0B2704700002DE9F04F824689B0D6
:1039F000904689B14902A1F136044FF41672B4FB26
:103A0000F2F001F5E571B1FBF2F102FB104292B266
:103A100083B289B2029203E0A2F136080B4602910A
:103A2000C1F54771C3F547730331033389B29BB2C4
:103A3000059103930027FBB22D4904931A018B18BB
:103A40008A58002A51D0B3F804B0B3F80AC0B3F8CA
:103A500006909A89039BCDF818B04B45CDF81CC051
:103A6000009240D31346DDF814B04B445B453ADD79
:103A7000039D029C5646CAEB06039BB2434532DACD
:103A8000DDF810C01A484FEA0C13C21891888C4216
:103A90001ED3DDF81CC0DDF818B0E3440BF1FF3C89
:103AA0001FFA8CFC644513D8D288954210D3DDF8F8
:103AB00000C0CC440CF1FF3C1FFA8CFC654507D8D4
:103AC000611AAA1AC05889B292B2FFF77BFF307010
:103AD0000134A4B2B4F5167F06F10106CBD1013D45
:103AE000ADB20024C7E70137A5E709B0BDE8F08F04
:103AF0007402002010B50022D3B20A491B01C81875
:103B0000CB58013263B15C7800F10801187800EB02
:103B100004204880D8789B7803EB00238B80EBE768
:103B200010BD00BF7402002010B50023934203D0E3
:103B3000CC5CC4540133F9E710BD02440346934200
:103B400002D003F8011BFAE7704700000EB400B57D
:103B50009CB04FF40271ADF814106FF00041049165
:103B600007914FF6FF711DABADF81610084953F8D9
:103B7000042B029006900868019302A900F06EF8E9
:103B8000029B00221A701CB05DF804EB03B0704772
:103B900004030020034613F8012B002AFBD1181A56
:103BA000013870472DE9F0478D68AB4281460C46DD
:103BB00092461F4643D38B8913F4906F3DD02668FD
:103BC0000969C1EB06086669022206EB460696FB08
:103BD000F2F608F101023A44964238BF16465B05F8
:103BE0000FD5314600F01CFB054698B121694246CD
:103BF000FFF79AFFA38923F4906343F08003A38126
:103C000013E0324600F060FB054670B94846216972
:103C100000F0C2FA0C23C9F80030A38943F0400336
:103C2000A3814FF0FF30BDE8F08725616661454410
:103C3000C8EB06062560A6603D46AF4200D23D4671
:103C40002A462068514600F08CFAA3685B1BA360EB
:103C500023681D4425600020BDE8F0872DE9F0436E
:103C60009DB0074603938B891C060D4616460CD55E
:103C70000B6953B9402100F0D3FA2860286110B9CC
:103C80000C233B60C8E040236B6100230993202391
:103C90008DF8293030238DF82A3033461C4613F82E
:103CA000012B1AB9B4EB06090FD002E0252AF5D191
:103CB000F8E73846294632464B46FFF773FF013096
:103CC00000F0A580099B4B4409932378002B00F05A
:103CD0009E8000234FF0FF320493079305920693D2
:103CE0008DF853301A9304F101094C464D4E21785A
:103CF0003046052200F026FA09F10109049B28B19B
:103D0000861B0120B04003430493EEE7D90644BF6D
:103D100020228DF853201A0744BF2B228DF8532000
:103D200022782A2A02D0079B21460EE0039A111D11
:103D300012680391002A01DB079204E0524243F02B
:103D400002030792049301340AE00C460131227801
:103D5000303A092A03D80A2000FB0323F5E707932A
:103D600023782E2B1AD163782A2B0AD1039B1A1D94
:103D70001B680392002B04F10204B8BF4FF0FF331D
:103D80000BE0611C00230C4601312278303A092AED
:103D900003D80A2000FB0323F5E70593224E217880
:103DA0003046032200F0CEF930B1861B049B402040
:103DB000B04003430493013421781C488DF8281047
:103DC0000622661C00F0BEF988B1194B33B9039B7B
:103DD000073323F007030833039314E003AB009386
:103DE000384604A92A46134BAFF3008007E003AB23
:103DF0000093384604A92A460E4B00F08FF8B0F124
:103E0000FF3F804603D0099B4344099345E7AB89B4
:103E10005B0601D4099801E04FF0FF301DB0BDE80A
:103E2000F08300BF01800008078000080B800008B5
:103E300000000000A53B00082DE9F84315461F4689
:103E40008A680B69DDF820809A42A8BF13462B6070
:103E500091F8432006460C460AB101332B602368D3
:103E6000990602D52B6802332B60236813F00609EC
:103E70001DD094F843302268003318BF0123920606
:103E80001FD5E1185A1C302081F84300224494F8D1
:103E9000451082F84310023313E03046394604F1EE
:103EA00019020123C047013007D009F10109E26876
:103EB0002B68D31A9945F0DBDBE74FF0FF30BDE804
:103EC000F8833046394604F14302C0470130F4D04C
:103ED00023682A68E16803F00603042B08BFC2EBDD
:103EE00001052369A2680CBF25EAE57500259A4201
:103EF000C4BFC3EB0203ED184FF00009A9450ADA6D
:103F00003046394604F11A020123C0470130D4D0AB
:103F100009F10109F2E70020BDE8F8832DE9FF4728
:103F20000E7E0C9D6E2E80460C4691469A4601F1FF
:103F3000430000F0A58011D8632E22D009D8002EAE
:103F400000F0AF80582E40F0BF8081F845607B4A7A
:103F50004FE0642E1ED0692E1CD0B5E0732E00F009
:103F6000A48009D86F2E2BD0702E40F0AD800B6846
:103F700043F020030B6038E0752E21D0782E34D02A
:103F8000A2E02B681A1D1B682A6001F1420781F824
:103F900042309DE022682B6812F0800F03D01A1D7A
:103FA0002A601D6805E05106F9D51A1D2A60B3F98B
:103FB0000050002D39DA2D236D4284F8433034E06F
:103FC00022682B6812F0800F03D01A1D2A601D682A
:103FD00004E05206F9D51A1D2A601D88237E574A2F
:103FE0006F2B14BF0A2308231BE07823544A84F85C
:103FF00045302368296813F0800F01F104062E6014
:1040000001D00D6802E05F06FBD50D88DE0744BFD6
:1040100043F0200323601DB9236823F020032360AD
:104020001023002184F8431001E0444A0A23666803
:10403000A660002E03DB216821F00401216005B990
:104040006EB104F14201B5FBF3F603FB16550F46C2
:10405000555D01F801593546002EF4D100E00746C0
:10406000082B0AD12368DD0707D5626823699A42C5
:1040700003DC302307F8013C013FC01B20612CE02A
:1040800009682B68626911F0800F04D0191D29603E
:104090001B681A6005E04906F8D5191D29601B68E0
:1040A0001A8000232361074617E02B681A1D2A6037
:1040B0001F683846FFF76EFD63682061984288BF2D
:1040C00023612369636005E004F1420784F84260DC
:1040D00001232361002384F84330CDF800A040463B
:1040E000214603AA4B46FFF7A7FE013002D14FF04D
:1040F000FF301FE0404649463A462369D047013029
:10410000F5D023689B0705D4E068039B9842B8BFAD
:1041100018460FE00025E268039BD31A9D42F3DAAC
:104120004046494604F119020123D0470130DED050
:104130000135F0E704B0BDE8F08700BF1280000849
:104140002380000810B5C9B202449042034606D04D
:104150001C788C4200F10100F7D1184610BD0020F8
:1041600010BD814270B501D300230EE08C18A0422F
:10417000FAD28518134613F1FF3305D3514266185E
:104180002944F65CCE54F6E770BD934203D0CC5C74
:10419000C4540133F9E770BD30B500293CD051F863
:1041A000042C0B1F1D49002AB8BF9B180A680C4637
:1041B00012B95A600B6030BD93420DD2196858187D
:1041C000904203D15A581144426819605A602360E2
:1041D00030BD994203D80A4651680029F9D11468C4
:1041E00015199D420AD11B682344D01888421360D8
:1041F00012D10868034413604B680CE002D90C2309
:10420000036030BD18681C188C4203D10C684968E3
:10421000204418605960536030BD00BF4403002043
:1042200070B5CD1C25F0030508350C2D38BF0C25C5
:10423000002D06463FDB8D423DD3214B1C681846BE
:104240002146A1B10B685B1B0ED40B2B03D90B606D
:10425000CC18CD501FE08C4202D1626802601AE097
:104260004B6863600C4616E00C464968E9E7154C5C
:1042700023681BB9304600F04DF8206029463046CF
:1042800000F048F8431C014615D0C41C24F0030478
:1042900084420AD1256004F10B00231D20F00700A1
:1042A000C31A0BD05A42E25070BD3046611A00F07A
:1042B00031F80130EED10C233360002070BD00BF17
:1042C0004403002040030020F8B5064614460D467E
:1042D00021B91146BDE8F840FFF7A2BF1AB9FFF7B0
:1042E0005BFF2046F8BD00F025F8A0420ED2304614
:1042F0002146FFF795FF074650B129462246FFF7B2
:1043000013FC30462946FFF747FF01E02846F8BD79
:104310003846F8BD38B5064C0023054608462360EC
:10432000FDF77AFD431C02D1236803B12B6038BD31
:10433000D88A002051F8040C002802DA04390B58FE
:10434000184404387047008002021F000000494EE4
:1043500054524F4E20204465666563746F73636FDB
:104360007065202020202020202031323334353643
:1043700037380A004E554D3A202564003120544507
:1043800058540A0032204C494E450A003220544508
:1043900058540A0054656D70657261747572653A9F
:1043A000202B31302E3520430A00C0C1C2C3C4C502
:1043B0000A000000080000000800000008000000DB
:1043C00008000000001000200040008006000000EF
:1043D000010000000100000001000000424D3657BE
:1043E000070000000000360400002800000058020A
:1043F000000020030000010008000000000000533E
:1044000007000000000000000000000000000000A5
:10441000000000000000000080000080000000801C
:104420008000800000008000800080800000C0C00C
:10443000C000C0DCC000F0CAA60000204000002080
:104440006000002080000020A0000020C0000020AC
:10445000E00000400000004020000040400000401C
:104460006000004080000040A0000040C00000400C
:10447000E00000600000006020000060400000607C
:104480006000006080000060A0000060C00000606C
:10449000E0000080000000802000008040000080DC
:1044A0006000008080000080A0000080C0000080CC
:1044B000E00000A0000000A0200000A0400000A03C
:1044C000600000A0800000A0A00000A0C00000A02C
:1044D000E00000C0000000C0200000C0400000C09C
:1044E000600000C0800000C0A00000C0C00000C08C
:1044F000E00000E0000000E0200000E0400000E0FC
:10450000600000E0800000E0A00000E0C00000E0EB
:10451000E00040000000400020004000400040005B
:104520006000400080004000A0004000C00040004B
:10453000E0004020000040202000402040004020BB
:104540006000402080004020A0004020C0004020AB
:10455000E00040400000404020004040400040401B
:104560006000404080004040A0004040C00040400B
:10457000E00040600000406020004060400040607B
:104580006000406080004060A0004060C00040606B
:10459000E0004080000040802000408040004080DB
:1045A0006000408080004080A0004080C0004080CB
:1045B000E00040A0000040A0200040A0400040A03B
:1045C000600040A0800040A0A00040A0C00040A02B
:1045D000E00040C0000040C0200040C0400040C09B
:1045E000600040C0800040C0A00040C0C00040C08B
:1045F000E00040E0000040E0200040E0400040E0FB
:10460000600040E0800040E0A00040E0C00040E0EA
:10461000E00080000000800020008000400080005A
:104620006000800080008000A0008000C00080004A
:10463000E0008020000080202000802040008020BA
:104640006000802080008020A0008020C0008020AA
:10465000E00080400000804020008040400080401A
:104660006000804080008040A0008040C00080400A
:10467000E00080600000806020008060400080607A
:104680006000806080008060A0008060C00080606A
:10469000E0008080000080802000808040008080DA
:1046A0006000808080008080A0008080C0008080CA
:1046B000E00080A0000080A0200080A0400080A03A
:1046C000600080A0800080A0A00080A0C00080A02A
:1046D000E00080C0000080C0200080C0400080C09A
:1046E000600080C0800080C0A00080C0C00080C08A
:1046F000E00080E0000080E0200080E0400080E0FA
:10470000600080E0800080E0A00080E0C00080E0E9
:10471000E000C0000000C0002000C0004000C00059
:104720006000C0008000C000A000C000C000C00049
:10473000E000C0200000C0202000C0204000C020B9
:104740006000C0208000C020A000C020C000C020A9
:10475000E000C0400000C0402000C0404000C04019
:104760006000C0408000C040A000C040C000C04009
:10477000E000C0600000C0602000C0604000C06079
:104780006000C0608000C060A000C060C000C06069
:10479000E000C0800000C0802000C0804000C080D9
:1047A0006000C0808000C080A000C080C000C080C9
:1047B000E000C0A00000C0A02000C0A04000C0A039
:1047C0006000C0A08000C0A0A000C0A0C000C0A029
:1047D000E000C0C00000C0C02000C0C04000C0C099
:1047E0006000C0C08000C0C0A000F0FBFF00A4A01B
:1047F000A000808080000000FF0000FF000000FF9C
:10480000FF00FF000000FF00FF00FFFF0000FFFFB0
:10481000FF00000036570700580200002003000088
:10482000656D66617400696D6167652E626D70000B
:10483000656D7074792E747874000000B072000891
:10484000C072000840380041022D30020000000014
:1048500059160008B515000804000000D66C0008C1
:10486000046B000899E80C00744800080000000080
:104870003C48000800000E00E06A0008FC6A0008DE
:1048800020005F00E2590008A05A0008B0000100B3
:10489000B2590008B4590008C00040000C4D00088F
:1048A0008C4D000852011000964C0008B64C0008D0
:1048B000780101002C4C00082E4C000892010100E8
:1048C0001A4C00081C4C0008C6020100FA4B0008F4
:1048D000FC4B0008DC020100D64B0008D84B000856
:1048E0001320280080490008D0490008AC200100AE
:1048F000384900083A49000822210100044900080B
:1049000006490008000019AF9AABFC1D1B957C2CD2
:10491000400F221D5D2466A4AB9765480F4B35956B
:1049200087ADFBFBFB5D3FCC4B6490CC4B6490CCE4
:104930004B64433F5626100000001F432180662928
:10494000662C291F368D24B036792C3855402AD84C
:10495000420F3D3337411B9A698C308A6B61391B9A
:104960002C297C710F61A653CB19F7790F3855406C
:10497000B036792C1F368D248B309A54318010003C
:1049800000001D0032003200320033004F0057009B
:1049900032006E007D00BB003200C8009201AE0103
:1049A000320032003200D1013200320032003200D7
:1049B00032003200320032003200DE0132003200BA
:1049C000320032003200320032003200EC010202CA
:1049D000141BAE86AB722C438E353535350F35350D
:1049E0009E42647B333FEF3B6CA453A110191B4CD8
:1049F0006B74FC22EF9722E58A2C90757329C740CF
:104A00003010001C23941CAB748C743031738C9761
:104A1000D84F2C70738C245E30A858656036101700
:104A20008D21867171711019868641F541F541F528
:104A300041F541F524FCA7F524E1651DE1102F8A1D
:104A4000D78FD87D54442C297D2A292E10306D21F2
:104A50003020918A3020917B95367995462C0095AF
:104A60005DAB462C20AB00AB00462C200F41462C02
:104A70005D245D462C79955D462C79AB5D462C2BEB
:104A8000462C2B462C2B462C5D2C101700D76EB2D3
:104A900051DC6EB2B2B224104143AEE22C53188DF9
:104AA0002C652C9BA4652CA02C42A5415D2C441D9B
:104AB0001B249D959D1D38245D2C441D381A1B9583
:104AC000361B36383638AB798C388C6A95400FA057
:104AD00030232C1BA90FAB1BA93B9540AB40AB79F6
:104AE000241B24422C1B241B2440AB40AB442C1B16
:104AF0002438245D243824442C1B2438245D243895
:104B0000249D2C2C0F38245D245D40AB79A43824DF
:104B100038245D243824892C382438245D24382412
:104B20002B2C8D2438245D2438242B2C8D243824E0
:104B30005D2438248D2C2B4179410091792C9D24C2
:104B40001B2440AB40AB382C1B7E415D0FA92438A1
:104B50002CA40FA03000A4428C388C8D2C2B2C78E8
:104B600018101E2B241B95A8A99574955D24772CED
:104B700020958AA14BA2243DAC8BBED429101920CC
:104B80004C2C2C5E620095400F221D5D95389AAB2F
:104B9000248AA1AB9557A2359566757329C7403015
:104BA000101700D76EB251DCB251DC6E51101E6D81
:104BB000E53DE58A2C1FAC8BBED4291021799632B5
:104BC000202C1B9574D2A22463AD2ECF412B8BB326
:104BD000F8100F001000000012424C6E24742C1FBD
:104BE0001DA89949D85D9522D85D9522D85D95B0CC
:104BF00037786DA1297729D010000000147F86A195
:104C0000AE3B3D9E426487AA92D86C8E35353535D1
:104C100035353524429A3DA1100000003194867844
:104C2000F1F7F1F7F1F7F1F7F1F7F11000001E38A5
:104C3000AFD7A1820F7B2C892C22529D4763365D12
:104C40000F99AB44A1262AD8298B79476A1D5DA606
:104C50001D2B0F3B1D2B246C1D1BFC23241BFC2335
:104C6000241BFC23241BFC23241BFC23249D246CD9
:104C70001D2B0F3B1D2B242B5524009AA97853295B
:104C8000190F267B365D475D4722529D47632C896D
:104C90002C900F820F1000000F0020002000200039
:104CA0002000200020002000200020002000200004
:104CB000200021004200216D9E68E589AD2ECF4184
:104CC0002B8BB3F810184C2C002C651DFC6CA9958F
:104CD00074D24BA22410001E7940AB2CD32C2C7C18
:104CE0002C400F72955D2466A4AB9532FE7BD822D2
:104CF000AD98A653F4F4CB1019444CFC42689E685E
:104D000024B01D3D7526C188D32610000000550033
:104D10005E00A800B100E700F3009801CB01D701C5
:104D2000F3013D02680200031703380348035703E9
:104D30008F039903E1033C048B04A004BC04DD044D
:104D4000F404010568056E05AB0544068806C8062F
:104D5000FC0625072D0753078407F2071C082208C5
:104D60003A087608A308150922094C095709690968
:104D70008A099B09EC094B0A870A9A0AAF0AD60AE4
:104D8000F00A010B480B560B810BF00B218D213FD4
:104D90004834A19B724FFD6A5BAB491D9F6C990023
:104DA0006A599F1D20E04597D8A65D1DDE6B00DE89
:104DB0002DA6D84590EC2420AA5050246B6F596B37
:104DC0007B2C6924697D6F1D6F2449456B9D59F7C4
:104DD000599DFC459278456F6B2A246A45F71DD88A
:104DE00010212321838383CAC5102123210F297712
:104DF000716979415244A30F78288DD844E920E99C
:104E000000412AA5362AA752B0FB7981416CA5360C
:104E10001E858484003CA52D8A45257E2D8A452546
:104E20007E2D9D59440F78A3842047669C2454B05E
:104E3000FB7961101E2321B6CA23F4CA1025D75668
:104E400026D35050E4E4E4F128BC6C369DE99F89F8
:104E500078843C89526B231DAB9226304926304919
:104E6000263049FA5DFA5DFA5DFA5DFA5DFA5DFA9F
:104E70005DFA101F2321B6CA37B6F483838310333B
:104E800000216B2B7E6B9D7E2D2B3C416B5D2D9D00
:104E9000454552443679452C3B0FF1476D5245400C
:104EA00097478D41366C3638933E524095367B0F8E
:104EB00091204765525D415D953BA4A9A9412236E9
:104EC0005D99AB87365D99AB9DA19B41186CA41889
:104ED0005B9B38A12980598C414144A5545D78D809
:104EE000409547A64520A0418A248D9B2CAB8DA5DB
:104EF0007E7E3EF1415D1D6B9D2479D86B6B5DA775
:104F00002D2D2A24A40FAB6BD85D2D6B386B8D7EB5
:104F10002D6F242B7E2D2B7E6BF7400FABF77E2D54
:104F200042787E101F42218C417C71262A1D6B32F3
:104F3000ABA49E6F393F646DD8322C70305E29224D
:104F4000A1A2A2A235393F4189A1799240F7381D2B
:104F50006B32268AA481102521F779F3344538B7BE
:104F60006BE610251B2C79406CA1AB2C5E6230A83F
:104F700070401949ADD842F3344538B76BE6102379
:104F800021F71B47555244D842E8477F999565A7BA
:104F9000A0905B9B8B5BAB4D2C9B953BD8A9244D84
:104FA0002C91909B40972324ABAA5078477B4533A4
:104FB0008520476DD8A4972D2B3CA55D52555253A3
:104FC000787E89D8423CF7361024D75626D350E451
:104FD000E4E4F179A1F128BC498520273E522D490E
:104FE00036A4462438DE18920F9B929B0092784597
:104FF00023A4D8102A232118421822184218221854
:10500000421822A02C4763A02C47630F1844A059D4
:10501000249D240041495B0F9D240078A7959D9510
:105020002078A7242B242078A7242B249F5D99384F
:10503000243C9D9938243C9D9938243C1B7E241B9C
:10504000A92444A5241BA92444A5241BA90F3B453E
:10505000A995A645A995A645009579957E1BD81BCF
:105060002420247E1BD81B2420247E1BD82C41A660
:105070004520187E5D591B187E659345426B527E14
:1050800065931B9F3C9F3C9F5D5C2D102523217ADF
:105090007E877ABF412AA47D6CA47D2BA126D97876
:1050A000BF41102679D70F702932FB5DF247A42447
:1050B0002BA3ED8D78D8D8635CBA8752523D4081DE
:1050C0000F313010252021A47D6CA47D2BA126D981
:1050D0007ABFD9101E232129B5472AA7FF810F7750
:1050E000F44110226F2136BEABD3268A6BAB253636
:1050F000423BF71BAB44596D0F23D8A8333A3F39D5
:1051000037CBCB41D392596D0F6DD85DA487364212
:105110003B5DA4502649A4618C24101E892198A6C9
:1051200053F4F4CB101D9D2147429F452D3E6BF754
:10513000A3843C4445362BF063C620417E1B554179
:105140003855417C9100D3913EA79FA79F2A0F9984
:1051500022A7418AA7415EE7A09A34A134A14B4B14
:105160000FEF41579E5D6B72E71866FE102A4421CF
:105170003AF73D364FFB2026467D441DA9A9186D00
:10518000A4915D9B6C362CAB2C3B3638413638D81D
:105190005D7E7E6D365D7E7E79A7454A454A457EB9
:1051A0006F368D4152205945A61B473841368D1D1B
:1051B000AB1B936DFE794140781DA9A9187B2E0089
:1051C0007D7B2C7129723910211B21456B23D8F767
:1051D000A38420782844A5DE527E1B55417C913D56
:1051E000529F2A990F22A7413180D3A07F188D8B1F
:1051F000323F4860403459415E5BAB6A599FA7F526
:1052000024DE6B3379EC24252D1B3CD82B84847948
:105210004155202CB945102623217A1BD97A1BD958
:10522000472697407D97407D6EB22410214221C4CD
:1052300020C4204120253644276A366B42A15026DF
:1052400049A4813B53F44110332321412D892F6B15
:10525000442F6B442F6B44BDBDBDBDBDBDBD786B40
:105260007D806B7D806B2926103523215A20783C68
:10527000F6F6F620267D6D267D6D26266EB224106C
:105280002844210F73291E2C47A2CAC5102B21F7D1
:105290006B222F492F492F492F492F492F492F4939
:1052A0002F492F492F492F492F492F492F23A4290F
:1052B0002D8A29417EA1267E89F79B3C2D8924AB2E
:1052C0003C2D6B003C2D1B7E24EB99EB99EB99EB6D
:1052D00099EB99EB990F1B591B363C2D1B7E412AEC
:1052E00045529F20789B3C1B402991426B29459D4C
:1052F000A4292D10212137CAC510222B2136BEAB7F
:10530000D3263EA536532C383666AB3F9F49A2DAEA
:105310009F49DA200F9EF78A24692469294F3A3F72
:105320004B193F0FCC0041B0AB1B252C3836669C87
:105330009554D3712073103421F71B306F6B420FDB
:10534000295D596B2979D89D9B361BA5367952D892
:105350005D361B52A745892F45006BD88D41F72D2F
:105360007EF720453C41A55D47386BA74095D88D19
:105370002D4095D88D2D4095D88D2D4095D81BA4C6
:1053800029D81BA429D81BA429D88D2D4095D88DA8
:105390002D4095D88D2D4095D88D2D4095D8386BC2
:1053A00036386BA77EF720453C41A540951B6BD84E
:1053B0008D41F72D452DA7529D0F2F20525D36238D
:1053C00045365D36596B2979D8420F29A31B301019
:1053D0002123212C54D38C4F2665FE458A369D27E8
:1053E0003E522D1FC4204744276A366B65FEAA0F24
:1053F00071715D95549AABDE2DA6D84582A77E903B
:10540000EC24252D381950F1288D1D442779A384CB
:105410003CA52D101E5D8F5477618C181F2C2BA27C
:10542000A20F6E19F7492C54D38C4F8C9534FE3350
:1054300047383CD89DE9004787453687453644A321
:105440009B2AA540477B524034A454198C959F8DCC
:1054500036A924101E8DE28C00B4902C548B903F02
:10546000EF246C8E9E2341588271697995471BCD3C
:105470006B90DFC420787678283E36252D361F368F
:105480001B479A7373208C101C8F0F7361000F6180
:10549000938259521EC600C600EC937C618C472A49
:1054A000A161933EA7AA50E44152909332207181AA
:1054B00010198F717171F4CA10219436307C819566
:1054C00043A7D1D1D17E90ECECECEC95ABAAC650C1
:1054D000F16C366B4D2E2E2E0FAB2A3B5F5F101FEB
:1054E0008F2C18798BBE0F6DA193D3F100284985BD
:1054F0003C82249D3CA52DB07D4D7D4D7D6C373586
:10550000CB41898BA48AFE382449A48195777310F6
:105510002B0094F141422D45A67E40951B3C6B45E6
:105520003C206B2CABDE919F0045413C00A541E047
:10553000990F5D19990F3C5DA7414165A45BAB478D
:105540003283240054248A2D249B78A1A9183C6F0F
:10555000241B9B79243D24459F4095453C3840AB16
:105560004579242B1D797EFC2041455D9F245D45B6
:10557000FC246B9D2479D86B6B5DA72D2D101A8FA1
:1055800095702424BE82A18935356E24B01D9D8B73
:10559000A8E79B63D8A2A2A20F39424B416FA12B6F
:1055A000346F618C477773101F8F9C89B8101FE28E
:1055B000408DABD32C2C5E952C5E628C32FD659BAE
:1055C00022759C89B8101D8F415D335041AAEC4172
:1055D0007E6F597ED3913D45197E4177990F49A73A
:1055E000476A5934D8A023A118419A473C659B20AB
:1055F000418BDE2D7E1EECEC41AA50F13E453385F9
:105600003C101F9436307C813BD84582A7D1D1D144
:105610007E90ECECECEC95ABAA41454952454936FD
:105620002DB0182D6CFE2D8A526B632C1B2D10246F
:105630008F9B9D342C24FE7B18891853188918538E
:10564000A05DA08A5B2B0FAB7859245D40AB7859E5
:10565000245D40AB4144A70FAB2C204144A7241B41
:105660002420785920951B953C239979243C239933
:1056700079243C2B7E957995794142A52420A997E0
:1056800045952095A66B4047A66B1B0F47A66B1B45
:1056900047DE417947DE4140ABDE782CB92CB93387
:1056A000101F8F85C0414D83838385C027101E1B2B
:1056B0008F58437395548B1B476DA19343A57E3838
:1056C000F049DFC420787678282BD8252D361F3670
:1056D0001B479A7373208C101F8F83838385C0E9C7
:1056E000C041101F8FD595471BCD6B90DFC420CED6
:1056F000976DCAF7101B8D940F70299A298B2BABCD
:10570000B0365E333A3F3923CBCBDA20472BAB8B15
:10571000802BA129B4101B31E2D77D4D7D4D7D3109
:105720006E6EB2B2B224101C9424443CA52D231DED
:105730004224908520242A1D6B42A3246C1D8924B9
:105740007CEC412C0F431D4582D82C3296AB66452C
:10575000417762A9245E99221D5D975924389AAB3E
:1057600024389AAB97A14848A241576E9E239E23A6
:105770009E894F6B952B8B10298DD7CA1B0F9B4190
:10578000186CA4185B9B9D1D295836409B5D4738BB
:10579000591B9BA6455D9B7E205945003C2D007EF4
:1057A000A67E7E7E598D4145C24145C241455D1D63
:1057B000797EA62CAB45003C2D1B9B7E5D591B9B27
:1057C000A62036409B5D477B26182AA4185B2446FA
:1057D00041411877CAF7101C0094850019414566AD
:1057E000EC0041A66C913EA79FD83C635BABA858E8
:1057F00065188D9ACC18748C725BAB49A74722A5AB
:10580000197E9FA53C6A933D45A6A545421D898406
:105810005D4710208F85C0E9C0414D2980A17D3EA4
:10582000A426EEB0EE101C009450E4E4F19DA7AA6B
:105830000FEC0F813B6C8CA2CA3A102B8F41384180
:1058400045C24145C24145C24145C24145C24145AB
:105850006D7E7E7E79A745A64026302A367D978CC0
:105860007D102C8F41457E5DA7454A45B1B17E3EF6
:105870007D54437D54437D544EAB4E10229454B41A
:10588000B46739370F7381BB3220718110268F784E
:10589000DB250078DB2500411B6B7B29258C187EDE
:1058A0008A8C249149930FA62B4145413E457E4168
:1058B0003E457E413E457E413E457E413E457E41E0
:1058C00089A7454163930FA68D8C249138D8547EC7
:1058D000492925101C8FCA3A230F7381BB322071CE
:1058E00081101B8F0F708C419A299A2B4B9F493541
:1058F000356E7853813B1D24479E379E3F4123A13F
:105900009D471F2C203663A4299A73541029008FB9
:105910004138249B558C2442A7402944D8361B4744
:105920009DD81B0F9343454725415D0F246B44A52C
:10593000476B44A5476B44A5416B3E2C803C2B8CA8
:10594000248DA62C803C2D20416B9DA5416B9DA5EF
:10595000416B9DA5416B9DA54179366C4595AB1B6F
:10596000A6450F246B63917E8A91402489D8361B0B
:10597000477B935838412C80598D8C101D1B8F29E3
:105980008B30B036548AFE7E6DD82B19E4F13E522E
:10599000AA9B7E3D406124732965A7F5247EB096BD
:1059A00095431D4582A77E90EC24252D3819F1F0F2
:1059B00010000000197CE2A187A147871D9BB45D00
:1059C0009AAB79971D2C322C7940322C7940322CAD
:1059D0007940322C8D3B5D1D2C5E628C32FD6F6BED
:1059E0001000000003000E0017006100D1005601F6
:1059F000BF01C601EA010B024D025C0261026902AD
:105A000070028F02BE02D402FA0225036E039903CC
:105A1000E40309044C049904A304AD04E004E9047C
:105A200019053B0501065606A006D80621072D07D5
:105A30003C078D07A407AC07BE0705080E08A6089B
:105A40002F0950095F098609B109B809C209DF09A0
:105A5000320AF60A450B770B820B920BA50BB40B9F
:105A6000DB0BE70BF60B360C480C690C740CA50C21
:105A7000BC0C160D210D2A0D3C0D830D8A0DC40D95
:105A8000CC0DF60D080E120E270E300E3C0E5E0EDB
:105A9000A40E390F750FC60FCE0FF10FFF0F1F1099
:105AA0000F0010136D21F4CA3F7F7539F7101723CB
:105AB0002162E3E3E3E310292021A1ABE132960F59
:105AC000651DE13296AB6A1D2C651DE13296329858
:105AD000242C651D2C651DE13296AB6A1D2C651DBD
